:100000000C9446000C9465000C9465000C946500FB
:100010000C9465000C9465000C9465000C946500CC
:100020000C9465000C9465000C9465000C946500BC
:100030000C9465000C9465000C9465000C946500AC
:100040000C9465000C9465000C9465000C9465009C
:100050000C9465000C9465000C9465000C9465008C
:100060000C9465000C9465000C9465000C9465007C
:100070000C9465000C9465000C94C8020C94650007
:100080000C94FC020C9465000C94650011241FBEB6
:10009000CFEFD0E1DEBFCDBF11E0A0E0B1E0E8E6F8
:1000A000F5E100E00BBF02C007900D92A830B10748
:1000B000D9F711E0A8E0B1E001C01D92A139B10764
:1000C000E1F70E94BE010C94B30A0C940000CF9398
:1000D000DF93CDB7DEB725970FB6F894DEBF0FBE1E
:1000E000CDBF9A8389836B83E981FA819581E98108
:1000F000FA818481981719F41D821C8229C0E98134
:10010000FA8120813181E981FA814281842F992706
:10011000F901E80FF91F8B818083842F8F5FE981BC
:10012000FA818283E981FA819281E981FA8185816C
:10013000981719F4E981FA811282E981FA818481A0
:100140008F5FE981FA81848381E090E09D838C83D5
:100150008C819D8125960FB6F894DEBF0FBECDBF72
:10016000DF91CF910895CF93DF93CDB7DEB7269778
:100170000FB6F894DEBF0FBECDBF9A8389837C8310
:100180006B83E981FA818481882319F41E821D82A0
:100190002CC0E981FA8120813181E981FA81838152
:1001A0009927F901E80FF91F8081EB81FC81808399
:1001B000E981FA8183818F5FE981FA818383E98113
:1001C000FA819381E981FA818581981719F4E9818F
:1001D000FA811382E981FA8184818150E981FA816F
:1001E000848381E090E09E838D838D819E8126961D
:1001F0000FB6F894DEBF0FBECDBFDF91CF9108954B
:10020000CF93DF93CDB7DEB724970FB6F894DEBF58
:100210000FBECDBF9A838983E981FA8184818823C7
:1002200019F41C821B820DC0E981FA812081318181
:10023000E981FA8183819927A901480F591F5C83BD
:100240004B838B819C8124960FB6F894DEBF0FBE42
:10025000CDBFDF91CF910895CF93DF93CDB7DEB7B8
:1002600024970FB6F894DEBF0FBECDBF9A83898363
:1002700089819A81009771F0E981FA811282E9817E
:10028000FA811382E981FA81148281E090E09C83F3
:100290008B8302C01C821B828B819C8124960FB6AB
:1002A000F894DEBF0FBECDBFDF91CF910895CF93FD
:1002B000DF93CDB7DEB724970FB6F894DEBF0FBE3D
:1002C000CDBF9A8389837C836B83E981FA818B819B
:1002D0009C8191838083E981FA811282E981FA818C
:1002E0001382E981FA811482E981FA818FE785839B
:1002F00024960FB6F894DEBF0FBECDBFDF91CF912D
:100300000895CF93DF93CDB7DEB780E20E947602E7
:1003100010920901E7E3F0E080EF8083E1E3F0E091
:1003200080EF80837894DF91CF910895CF93DF930E
:10033000CDB7DEB721970FB6F894DEBF0FBECDBFA5
:100340008983E2E3F0E090EF898189238083E8E309
:10035000F0E08981992782959295907F9827807FF8
:100360009827982F80EF8923808321960FB6F894E1
:10037000DEBF0FBECDBFDF91CF910895CF93DF9346
:10038000CDB7DEB762970FB6F894DEBF0FBECDBF14
:100390000E94810100C080E090E0A0EAB0E48B837D
:1003A0009C83AD83BE8320E030E04AEF54E46B8150
:1003B0007C818D819E810E944206DC01CB01898770
:1003C0009A87AB87BC8720E030E040E85FE369852F
:1003D0007A858B859C850E94CC0788230CF005C00C
:1003E00081E090E098878F831AC020E03FEF4FE7CD
:1003F00057E469857A858B859C850E94600718166D
:100400000CF003C018861F820AC069857A858B8527
:100410009C850E949104DC01CB0198878F838F819A
:1004200098859A83898389819A810197F1F79A83C4
:10043000898380918F01863008F4ADCF04C0CE014E
:100440000D960E942A02CE010D960E94E603882393
:10045000B1F7A1CFCF93DF93CDB7DEB724970FB617
:10046000F894DEBF0FBECDBF9A838983E981FA81FC
:100470008081853591F5E981FA8185818D3D69F528
:10048000E981FA81918180910801981731F0E98121
:10049000FA818181803409F020C0E981FA8182816A
:1004A000282F33273C832B838B819C8180319105BE
:1004B00031F02B813C812737310539F00EC0E981BD
:1004C000FA8183810E94960108C081E0809309012E
:1004D000E981FA8183810E94C50324960FB6F894BE
:1004E000DEBF0FBECDBFDF91CF910895CF93DF93D5
:1004F000CDB7DEB721970FB6F894DEBF0FBECDBFE4
:1005000089838BE091E02BE831E0BC01C9010E94B6
:100510005701A1E3B0E0E1E3F0E0808188608C93D3
:10052000A1E3B0E0E1E3F0E0808184708C93A4E388
:10053000B0E0E4E3F0E0808180688C93A2E2B0E078
:10054000E2E2F0E0808184608C930E944203E8E95B
:10055000F0E01082E9E9F0E088E08083EBE9F0E088
:100560001082EAE9F0E088E98083EDE9F0E08EE0CE
:1005700080838981809308011092090178942196E3
:100580000FB6F894DEBF0FBECDBFDF91CF910895B7
:100590001F920F920FB60F9211242F933F934F93F8
:1005A0005F936F937F938F939F93AF93BF93EF93DB
:1005B000FF93CF93DF93CDB7DEB7ECE9F0E0808116
:1005C00080930A0120910A018BE891E0622F0E943A
:1005D0006700DF91CF91FF91EF91BF91AF919F9114
:1005E0008F917F916F915F914F913F912F910F90DC
:1005F0000FBE0F901F9018951F920F920FB60F927B
:1006000011242F933F934F935F936F937F938F9317
:100610009F93AF93BF93EF93FF93CF93DF93CDB7A8
:10062000DEB70E944203AAE9B0E0EAE9F0E0808187
:100630008F7B8C93DF91CF91FF91EF91BF91AF9121
:100640009F918F917F916F915F914F913F912F91EA
:100650000F900FBE0F901F901895CF93DF93CDB7DB
:10066000DEB7A5E3B0E0E5E3F0E0808180688C933D
:10067000A3E2B0E0E3E2F0E0808184608C93DF915C
:10068000CF910895CF93DF93CDB7DEB7A3E2B0E06B
:10069000E3E2F0E090818FE789238C93A3E2B0E05E
:1006A000E3E2F0E080818B7F8C93DF91CF9108951E
:1006B000CF93DF93CDB7DEB72A970FB6F894DEBF9E
:1006C0000FBECDBF8F83688749872A878F818A8332
:1006D00088858B8389858C838A858D83CE0101965D
:1006E0000E947B032A960FB6F894DEBF0FBECDBFE3
:1006F000DF91CF910895CF93DF93CDB7DEB72597E4
:100700000FB6F894DEBF0FBECDBF9D838C838C8166
:100710009D819B838A83EC81FD8185E58083EC81CB
:10072000FD818DED8583809109018823E1F30E948D
:100730002D03198217C0ACE9B0E0898199279C018B
:100740008A819B81F901E80FF91F80818C93EBE985
:10075000F0E080819927807290700097C1F38981C1
:100760008F5F89838981863030F3AAE9B0E0EAE9B6
:10077000F0E0808180648C9325960FB6F894DEBFFC
:100780000FBECDBFDF91CF910895CF93DF93CDB74B
:10079000DEB727970FB6F894DEBF0FBECDBF8F83AD
:1007A0008F818A8387E78B83809108018C83CE01B8
:1007B00001960E947B031092090127960FB6F894C8
:1007C000DEBF0FBECDBFDF91CF910895CF93DF93F2
:1007D000CDB7DEB763970FB6F894DEBF0FBECDBFBF
:1007E0009C878B871C821B8280918F01863008F446
:1007F0005AC008C0CE0105962BE831E0BC01C90102
:100800000E94B3008D81853521F080918F01853064
:1008100088F78D81853531F08B81282F33273E87EE
:100820002D8746C081E08C8310C08C8199279C0164
:10083000CE010596820F931F2BE831E0BC01C90160
:100840000E94B3008C818F5F8C838C81863068F32B
:100850008C81863041F5CE0105969A8389838B85FC
:100860009C8529813A81988B8F873A8B298B36E03A
:100870003B8BE989FA89008029893A892F5F3F4FAC
:100880003A8B298BEF85F88900822F8538892F5F75
:100890003F4F388B2F873B8931503B8B8B89882387
:1008A00041F781E08B838B81E82FFF27FE87ED875F
:1008B0008D859E8563960FB6F894DEBF0FBECDBFC3
:1008C000DF91CF910895CF93DF93CDB7DEB7229715
:1008D0000FB6F894DEBF0FBECDBF9A838983E9813E
:1008E000FA8180818535A1F4E981FA8185818D3D88
:1008F00079F4E981FA81918180910801981741F496
:10090000E981FA818281873719F481E080930901B6
:1009100022960FB6F894DEBF0FBECDBFDF91CF9108
:100920000895EF92FF920F931F937B018C0120E0BB
:1009300030E040E05FE40E94960788237CF020E0EE
:1009400030E040E05FE4C801B7010E94E4050E9486
:100950000208605070408040904804C0C801B70150
:100960000E9402081F910F91FF90EF900895A0E060
:10097000B0E0EDEBF4E00C94800AFC016A01908198
:10098000923008F41BC1DB018C91823080F09430EE
:1009900061F4843009F012C19181EB0189819817CB
:1009A00009F40CC1E0E0F1E009C1843011F4FB016D
:1009B00005C1823091F4923009F000C1EA01DF01F3
:1009C00088E00D9009928150E1F78181FB019181CE
:1009D0008923E6018983F601F1C0923041F36280F8
:1009E0007380EB018A809B80E480F580068117810B
:1009F0002C813D814E815F815301A818B908C50142
:100A0000B7FCABC080970CF457C0861497040CF465
:100A1000BEC03401EE24FF2487019181FB01818156
:100A2000981709F4A6C0992309F49CC02E193F0910
:100A3000400B510B57FDB0C0E60119827B826A82E0
:100A4000F6012483358346835783E6012C813D815B
:100A50004E815F8179018A01DA01C9010197A109FB
:100A6000B1098F5F9F4FAF4FBF43F8F4E6016A8132
:100A70007B81A8019701220F331F441F551F61502E
:100A8000704079018A01DA01C9010197A109B10910
:100A90008F5F9F4FAF4FBF4360F3E6017B836A8355
:100AA000F601248335834683578383E0D6018C93F4
:100AB00057FD39C0F60182C086149704B4F4C0E033
:100AC000D0E0DA01C90181709070A070B0705695C5
:100AD000479537952795282B392B4A2B5B2B219649
:100AE000AC16BD0671F78A0C9B1C681479040CF0D7
:100AF00094CFC0E0D0E05401A618B708D801C701D0
:100B000081709070A070B07016950795F794E79477
:100B1000E82AF92A0A2B1B2B2196AC16BD0671F781
:100B20006A0C7B1C7ACFDA01C901B695A795979517
:100B300087952170307040705070282B392B4A2BCC
:100B40005B2BE6012C833D834E835F838A819B81EF
:100B500001969B838A83F60131C0882799278A19D9
:100B60009B0950CFE21AF30A040B150BA801970159
:100B700061CFE60199837B826A822E0D3F1D401F63
:100B8000511FF60124833583468357838ECF20E09F
:100B900030E040E050E041CF81E0E60189837B8294
:100BA0006A8250954095309521953F4F4F4F5F4F4A
:100BB000F601248335834683578347CFCF01EEE088
:100BC000CDB7DEB70C949C0AA0E2B0E0EAEEF5E007
:100BD0000C94880A69837A838B839C832D833E835C
:100BE0004F83588789E1E82EF12CEC0EFD1EB701EA
:100BF000CE0101960E9474098E010F5E1F4FB8014D
:100C0000CE0105960E9474098A8991E089278A8B12
:100C1000AE01475F5F4FB801C7010E94B7040E9451
:100C20005208E6E0A0960C94A40AA0E2B0E0EBE142
:100C3000F6E00C94880A69837A838B839C832D83E6
:100C40003E834F83588799E1E92EF12CEC0EFD1E6F
:100C5000B701CE0101960E9474098E010F5E1F4FED
:100C6000B801CE0105960E947409AE01475F5F4F3F
:100C7000B801C7010E94B7040E945208E6E0A0969E
:100C80000C94A40AA0E2B0E0E8E4F6E00C947C0A3C
:100C900069837A838B839C832D833E834F8358871C
:100CA0008E01075E1F4FB801CE0101960E947409A4
:100CB000F1E1EF2EF12CEC0EFD1EB701CE010596F1
:100CC0000E947409898D823078F09989923040F4BD
:100CD00020E09A8D8A89981321E02A8BB701E9C018
:100CE000843051F4923061F020E09A8D8A89981313
:100CF00021E02A8FB801DDC0943029F4823041F719
:100D000060E071E0D6C0823079F3923009F32D8D26
:100D10003E8D4F8D58A18D899E89AF89B88D222433
:100D200033242101AA24BB246501EE24FF2487017A
:100D300060E070E00DC06F5F7F4F6032710599F128
:100D4000880F991FAA1FBB1F569547953795279562
:100D500020FF19C0280E391E4A1E5B1E6624772408
:100D60004301281639064A065B0628F4E1E06E2E98
:100D7000712C812C912CAE0CBF1CC01ED11EA60C58
:100D8000B71CC81CD91CEE0CFF1C001F111FB7FF9D
:100D9000D2CFE1E06E2E712C812C912CE628F72821
:100DA00008291929C8CF8B8D9C8D2B893C89820FEE
:100DB000931F02969C878B871A869A8D8A8998172B
:100DC00011F081E08A87D7FE17C08B859C85A0FE35
:100DD0000CC0569447943794279420E030E040E0CC
:100DE00050E8222A332A442A552AD694C794B79425
:100DF000A79401969C878B8730E0A31630E0B3065A
:100E000030E0C30630E4D30618F58B859C850EC010
:100E1000220C331C441C551C019720E0A21620E034
:100E2000B20620E0C20620E4D20680F4AA0CBB1C65
:100E3000CC1CDD1C57FEECCF31E0632E712C812CD5
:100E4000912CA628B728C828D928E2CF9C878B8761
:100E5000D601C5018F779070A070B0708034910575
:100E6000A105B10551F0AD86BE86CF86D88A83E054
:100E70008987BE01675F7F4F1CC0A7FCF4CF211498
:100E800031044104510479F380E490E0A0E0B0E043
:100E9000A80EB91ECA1EDB1E80E8682E8FEF782EC2
:100EA0008FEF882E8FEF982EA620B720C820D9204C
:100EB000DACFCB010E945208E2E1A0960C94980A86
:100EC000A8E1B0E0E6E6F7E00C94880A69837A834B
:100ED0008B839C832D833E834F83588781E1E82E4B
:100EE000F12CEC0EFD1EB701CE0101960E94740993
:100EF0008E01075F1F4FB801CE0105960E9474094D
:100F00008989823018F42FEF3FEF0BC0898582303A
:100F1000D0F3B801C7010E94130A282F332727FDF9
:100F20003095C901E6E068960C94A40AA8E1B0E007
:100F3000ECE9F7E00C94880A69837A838B839C83BD
:100F40002D833E834F83588781E1E82EF12CEC0EF0
:100F5000FD1EB701CE0101960E9474098E01075F44
:100F60001F4FB801CE0105960E947409898982300D
:100F700018F42FEF3FEF0BC089858230D0F3B80112
:100F8000C7010E94130A282F332727FD3095C90176
:100F9000E6E068960C94A40AA8E1B0E0E2EDF7E080
:100FA0000C94880A69837A838B839C832D833E8388
:100FB0004F83588781E1E82EF12CEC0EFD1EB7011E
:100FC000CE0101960E9474098E01075F1F4FB80180
:100FD000CE0105960E9474098989823018F08985AE
:100FE000823018F421E030E008C0B801C7010E9447
:100FF000130A282F332727FD3095C901E6E06896AC
:101000000C94A40AACE0B0E0E8E0F8E00C948C0AA0
:1010100069837A838B839C83BE016B5F7F4FCE0194
:1010200001960E9474098D81823061F0823050F007
:10103000843069F48E81882359F52FEF3FEF4FEF0D
:101040005FE72AC020E030E040E050E025C02F817B
:10105000388537FDF7CF2F31310564F78EE190E009
:10106000821B930B29853A854B855C8504C0569578
:101070004795379527958A95D2F78E81882361F019
:1010800050954095309521953F4F4F4F5F4F04C08D
:1010900020E030E040E050E8CA01B901E2E02C96DF
:1010A0000C94A80A4F925F926F927F928F929F92B8
:1010B000AF92BF92DF92EF92FF920F931F9320E0C7
:1010C00030E040E050E0FC01E480F58006811781CB
:1010D000D1808081823038F4D801C701A061AF7718
:1010E000B0706FEFD9C0843009F46EC0823009F45B
:1010F00071C0E114F1040105110509F46BC082818E
:1011000093816FEF823896070CF06AC062E87FEF38
:10111000681B790B6A3171050CF080C047015801DA
:10112000062E04C0B694A794979487940A94D2F795
:1011300044245524320181E090E0A0E0B0E004C0F6
:10114000880F991FAA1FBB1F6A95D2F70197A109A3
:10115000B109E822F9220A231B23E114F104010555
:10116000110529F061E0462E512C612C712C85016E
:101170007401E428F52806291729D801C7018F77BB
:101180009070A070B07080349105A105B10509F48C
:1011900057C0D801C701CF96A11DB11D60E070E016
:1011A0008030E0E09E07E0E0AE07E0E4BE0710F02C
:1011B00061E070E027E0B695A795979587952A9509
:1011C000D1F7AF77B07068C080E090E0A0E0B0E009
:1011D0006FEF62C080E090E0A0E0B0E060E05CC053
:1011E000803891058CF7BC0161587F4FD801C70149
:1011F0008F779070A070B07080349105A105B10513
:10120000A1F08FE390E0A0E0B0E0E80EF91E0A1F25
:101210001B1F17FD28C0D801C701CCCF60E070E0CC
:1012200080E090E0A0E0B0E0CCCFE7FEF2CF80E439
:1012300090E0A0E0B0E0E80EF91E0A1F1B1FE9CF06
:10124000E7FC18C080E090E060E0E61660E0F6069B
:1012500060E0060760E4160710F081E090E0BC0152
:10126000D801C701A7CF16950795F794E7946F5F4C
:101270007F4FD1CFD801C701805C9F4FAF4FBF4F89
:1012800060E070E08030E0E09E07E0E0AE07E0E480
:10129000BE0708F48FCF8CCF282F392F9A2F9F7736
:1012A000842F8078892B962F9795992797958F77FC
:1012B000482F492B6695852F8078862BD794DD247F
:1012C000D7948F77582F5D29CA01B9011F910F91CB
:1012D000FF90EF90DF90BF90AF909F908F907F90A6
:1012E0006F905F904F900895FC01DB012081318168
:1012F0009281492F4F7750E0991F9927991F838139
:10130000682F660F692B881F8827881FFD0181833E
:10131000662309F049C0211531054105510509F43D
:1013200070C082E89FEFFD0193838283220F331FF9
:10133000441F551F220F331F441F551F220F331FF9
:10134000441F551F220F331F441F551F220F331FE9
:10135000441F551F220F331F441F551F220F331FD9
:10136000441F551F83E08C932030F0E03F07F0E0EE
:101370004F07F0E45F0790F482E89FEF220F331FDE
:10138000441F551F0197203060E0360760E0460794
:1013900060E4560798F3FD0193838283FD01248363
:1013A00035834683578308956F3F71F1862F9927C0
:1013B0008F579040FD019383828383E08C93220FAB
:1013C000331F441F551F220F331F441F551F220F69
:1013D000331F441F551F220F331F441F551F220F59
:1013E000331F441F551F220F331F441F551F220F49
:1013F000331F441F551F506424833583468357830E
:10140000089582E08C930895211531054105510519
:1014100019F484E08C93089544FD02C01C92BECF61
:1014200081E08C93BBCFEF92FF920F931F93CF93EA
:10143000DF93FC01DB018081823050F09C9192307F
:1014400038F0843041F49430B1F08181882381F404
:1014500061E070E04BC09430E9F18230A1F092304D
:10146000A1F36181ED018981681791F0662381F311
:101470006FEF7FEF3BC0EB018981682F7727818178
:10148000681B710933C0923059F560E070E02EC0DE
:1014900022813381ED018A819B818217930734F386
:1014A000281739079CF0E480F58006811781FD013B
:1014B00024813581468157812E153F05400751070C
:1014C000A8F2E216F30604071507F8F6662309F0FA
:1014D000BFCFCECFFB018181882309F0B9CFC8CF20
:1014E000EB018981882309F0B3CFC2CFCB01E6E0BD
:1014F000CDB7DEB70C94A40A2F923F924F925F9221
:101500006F927F928F929F92AF92BF92CF92DF9213
:10151000EF92FF920F931F93CF93DF93CDB7DEB778
:10152000CA1BDB0B0FB6F894DEBF0FBECDBF09940C
:101530002A88398848885F846E847D848C849B8463
:10154000AA84B984C884DF80EE80FD800C811B8171
:10155000AA81B981CE0FD11D0FB6F894DEBF0FBEA0
:08156000CDBFED010895FFCF9E
:0815680000000000000000007B
:00000001FF
